S012000070727A796B6C61645F352E737265630D
S11300002EC0000048C0000046C0000044C00000EC
S113001042C0000040C000003EC00000C0C200005A
S11300203AC0000038C000006FC0000034C00000B7
S113003032C0000030C000002EC000002CC0000000
S11300402AC0000028C0000026C0000024C0000010
S113005022C000003F065B4F666D7D077F6F112451
S11300601FBECFE5D8E0DEBFCDBF10E0A0E6B0E014
S1130070E6EDF0E102C005900D92AE36B107D9F776
S113008026E0AEE6B0E001C01D92A63AB207E1F761
S1130090A9D00C946908B4CFD4E6CAE020E04FEFAD
S11300A05FEF60E070E080917100909172001ED467
S11300B08823A1F380916E008F5F8B3F18F48093A7
S11300C06E0002C010926E0020916E00822F6D2F80
S11300D0D5D7E82F892FF0E0EC5AFF4FE491E09355
S11300E0A4066C2FCBD7E82FF0E0EC5AFF4FE49135
S11300F0E093A306822FC2D7E92FF0E0EC5AFF4F1A
S1130100E491E093A206CACF1F920F920FB60F920A
S113011011242F933F934F935F936F937F938F9308
S11301209F93AF93BF93EF93FF93CF93DF931F926C
S1130130CDB7DEB7198280916F0090917000853F32
S113014021E0920730F401969093700080936F0041
S11301500FC01092700010926F0020E0AE014F5F4C
S11301605F4F60E070E0809171009091720098D3CD
S11301708091A1068F5F8093A106853010F01092C4
S1130180A10688B38F6088BBE091A106F0E0EE552C
S1130190F94F8081809585BB3091A10628B381E019
S11301A090E002C0880F991F3A95E2F780959095E8
S11301B0822388BB8981813009F499D10F90DF9122
S11301C0CF91FF91EF91BF91AF919F918F917F91CB
S11301D06F915F914F913F912F910F900FBE0F90B0
S11301E01F9018958FE087BB18BA8FEF84BB15BAA0
S11301F089B7826089BF8EE08CBF83B78D6083BF6F
S113020060E081E081D29093720080937100009746
S113021031F020E040E050E060E070E0BBD2A12C7F
S1130220B12CC12CD12CE12CF12C01E020E030E0E8
S113023045E550E062E670E08CE490E024D405D516
S1130240FFCFFC010396928381832FEF3FEF34832A
S11302502383968385839087878310820895FC0186
S1130260118610860895CF93DF93DC01FB0111966C
S11302702D913C911297E9018A819B81938382831A
S1130280358324838A819B81EC017D836C83E9011E
S11302907B836A8312967C936E931197B187A087B0
S11302A08C918F5F8C93DF91CF910895CF93DF93DF
S11302B0AC01DB018D919C9111978F3F2FEF920739
S11302C021F4EA01EF81F8850EC0FA013396228108
S11302D03381E901288139818217930720F0028054
S11302E0F381E02DF4CF8281938113969C938E93B6
S11302F01297EC01BD83AC831596FC93EE9314978F
S1130300B383A28319965C934E931897FA01808164
S11303108F5F8083DF91CF910895CF93DF93FC01AA
S1130320A281B3818481958115969C938E931497B1
S1130330C481D581BB83AA83A085B18511968D9193
S11303409C911297E817F90721F41296DC93CE9347
S11303501197118610868C9181508C93DF91CF91E7
S113036008950F931F93CF93DF938C019ED4C09174
S11303707300D0917400CE01800F911F8C3D25E055
S1130380920750F4C817D90738F4CB58DF4F90932D
S113039074008093730002C0C0E0D0E028D5CE0181
S11303A0DF91CF911F910F910895089531E1FC01E0
S11303B03083319722E220833197A3E3A0833197DE
S11303C060833197708331971082319760E860833E
S11303D031971082319762E06083319763E06083E4
S11303E0319764E06083319765E06083319766E01C
S11303F06083319767E06083319768E06083319769
S113040069E06083319760E160833197308331978D
S113041032E13083319733E13083319734E13083F3
S1130420319735E13083319736E13083319737E1C5
S11304303083319738E13083319739E13083319714
S113044030E23083319731E2308331972083319722
S113045023E220833197408331975083319726E2FA
S11304602083319727E22083319728E22083319734
S113047029E22083319720E32083319721E32083ED
S1130480869708951BBC89EF8ABD8BE08EBD89B722
S1130490806189BFA0919F06B091A006CD91CDBF88
S11304A0DD91DEBFFF91EF91DF91CF91BF91AF91CD
S11304B09F918F917F916F915F914F913F912F9178
S11304C01F910F91FF90EF90DF90CF90BF90AF906E
S11304D09F908F907F906F905F904F903F902F9060
S11304E01F900F900FBE0F90089581E008950F9212
S11304F00FB6F8940F921F9211242F923F924F92AD
S11305005F926F927F928F929F92AF92BF92CF929F
S1130510DF92EF92FF920F931F932F933F934F938A
S11305205F936F937F938F939F93AF93BF93CF9377
S1130530DF93EF93FF93A0919F06B091A0060DB6B1
S11305400D920EB60D92BCD4A0919F06B091A00658
S1130550CD91CDBFDD91DEBFFF91EF91DF91CF91C2
S1130560BF91AF919F918F917F916F915F914F91C7
S11305703F912F911F910F91FF90EF90DF90CF90BB
S1130580BF90AF909F908F907F906F905F904F90AF
S11305903F902F901F900F900FBE0F9008951F92C1
S11305A00F920FB60F9211242F933F934F935F93A3
S11305B06F937F938F939F93AF93BF93EF93FF9327
S11305C07AD3FF91EF91BF91AF919F918F917F91DA
S11305D06F915F914F913F912F910F900FBE0F90AC
S11305E01F901895CF93DF93EC01942F8C8D882363
S11305F089F1482F50E0911114C08C819D814AD516
S11306002C8D8C819D81820F911D9D838C832A81E9
S11306103B8182179307F0F0888199819D838C83B5
S113062019C08E819F8136D58C8D90E091958195EE
S113063091092E813F81280F391F3F832E834881E2
S113064059812417350730F42A813B81820F931F87
S11306509F838E838A8D8F5F8A8FDF91CF910895D8
S1130660FC01CB01608171816115710591F0448DAC
S113067050E026813781240F351F37832683A281DA
S1130680B3812A173B0710F07783668366817781ED
S113069001C508950F931F93CF93DF93EC010FB619
S11306A0F8940F928C010F5E1F4F8E8D18165CF418
S11306B08989882341F0C80166D48111DBD48E8DE9
S11306C081508E8FF2CF8FEF8E8F0F900FBE0FB6AB
S11306D0F8940F928E01085F1F4F8D8D18165CF4ED
S11306E08885882341F0C8014ED48111C3D48D8DEF
S11306F081508D8FF2CF8FEF8D8F0F900FBEDF91D2
S1130700CF911F910F910895CF92DF92EF92FF92B4
S11307100F931F93CF93DF93882381F1F62EE82E56
S11307208FE190E01EDEEC01892B41F1CF2CD12C1E
S1130730EF9C80011124C801019613DE99838883FC
S11307400097D1F09C01200F311F3B832A831A8E1E
S11307509D838C830C191D09080F191F1F830E8399
S1130760EB8EFC8E8FEF8D8F8E8FCE01089669DD18
S1130770CE01419666DD04C0CE0117DEC0E0D0E0B4
S1130780CE01DF91CF911F910F91FF90EF90DF90F9
S1130790CF900895AF92BF92DF92EF92FF920F93A2
S11307A01F93CF93DF9300D000D01F92CDB7DEB755
S11307B08C017B015D834C83D22E80E0580198E04C
S11307C0A90EB11C0FB6F8940F92F801228D938DE7
S11307D0291790F44D2DB701C80104DFF801818970
S11307E0882331F0C8014196CED3813009F47FDEED
S11307F00F900FBE81E045C02C813D81232B19F45D
S11308000F900FBE3DC0811103C0CE010196F5D3F8
S11308100F900FBE4AD20FB6F8940F92F801858D4F
S11308208F3F09F4158EF801868D8F3F09F4168EDB
S11308300F900FBEBE016C5F7F4FCE010196E8D3CF
S113084081111BC00FB6F8940F92F801928D0F908E
S11308500FBE838D98130DC06C817D81C5017AD341
S1130860C80118DFC4D2882311F081E0ABCF3FDE8A
S1130870FCCFC8010FDFBBD2F8CFC8010BDFB7D262
S113088080E00F900F900F900F900F90DF91CF9119
S11308901F910F91FF90EF90DF90BF90AF9008955C
S11308A00F931F93CF93DF93EC019A8D8B8D981741
S11308B0B8F48A01422FCE0195DE8E8D8F3F61F40C
S11308C08989882359F0CE0141965DD3882331F07C
S11308D081E0F801808305C08F5F8E8F81E001C0C5
S11308E080E0DF91CF911F910F910895AF92BF9255
S11308F0DF92EF92FF920F931F93CF93DF9300D079
S113090000D01F92CDB7DEB78C017B015D834C8391
S1130910D22E80E0580191E1A90EB11C0FB6F894D3
S11309200F92F801928D992319F1A680B780B7012F
S1130930C80196DEF801D1100DC0828D8150828FDE
S11309408085882389F0C80108961DD3813061F41D
S1130950CEDD0AC0B782A6828189882329F0C80126
S1130960419611D38111F4CF0F900FBE81E044C0A2
S11309702C813D81232B19F40F900FBE3CC08111B3
S113098003C0CE01019639D30F900FBE8ED10FB69E
S1130990F8940F92F801858D8F3F09F4158EF801B4
S11309A0868D8F3F09F4168E0F900FBEBE016C5FCB
S11309B07F4FCE0101962CD381111AC00FB6F89443
S11309C00F92F801828D0F900FBE81110DC06C81C2
S11309D07D81C501BFD2C8015DDE09D2882311F033
S11309E081E09CCF84DDFCCFC80154DE00D2F8CF77
S11309F0C80150DEFCD180E00F900F900F900F9053
S1130A000F90DF91CF911F910F91FF90EF90DF90A6
S1130A10BF90AF9008956BDDFECFCF93DF93E0914D
S1130A209F06F091A006938382832091590630910A
S1130A305A068217930768F460919F067091A00686
S1130A4080916506909166066E5F7F4FDF91CF912E
S1130A502DCCEC0160919F067091A00680916706F1
S1130A60909168066E5F7F4F21DC809160009091C9
S1130A706100C817D90720F4D0936100C0936000C7
S1130A80DF91CF9108954F925F926F927F928F92F0
S1130A909F92AF92BF92CF92DF92EF92FF920F9309
S1130AA01F93CF93DF932C013B015A01490181E24B
S1130AB090E057DCEC01892B09F4B5C0C114D104D2
S1130AC019F4C5014EDC01C0C601988F8F8B0097C5
S1130AD019F4CE016ADCA7C0A50165EA70E0E3D28F
S1130AE021E0A21AB1088F89988DA80EB91E48E09A
S1130AF050E0B301CE014996DDD218A2102F043084
S1130B0008F013E01E8B6E0182E0C80ED11CC601F2
S1130B10A6DBCE010C96A3DBD987C88784E090E0DE
S1130B20811B91099D878C87DB8BCA8BA401B20141
S1130B30C5013CDC99838883E114F10419F0F701C1
S1130B40D183C0830FB6F8940F9280915B068F5FB8
S1130B5080935B0680919F069091A006892B51F5A6
S1130B60D093A006C0939F0680915B06813089F5DF
S1130B708BE796E066DB84E896E063DB8DE896E03D
S1130B8060DB86E996E05DDB82E796E05ADB89E686
S1130B9096E057DB8CE596E054DB82E796E0909391
S1130BA068068093670689E696E0909366068093CC
S1130BB065060FC08091560681110BC0E0919F0617
S1130BC0F091A0068689081720F0D093A006C09360
S1130BD09F068E8990915806981710F480935806B2
S1130BE0909151069F5F90935106909157069817E4
S1130BF010F480935706F9E08F9FC0011124B601C9
S1130C008558994F30DB0F900FBE8091560688238C
S1130C1041F0E0919F06F091A0068689801708F4C0
S1130C2066DC81E001C08FEFDF91CF911F910F91BE
S1130C30FF90EF90DF90CF90BF90AF909F908F90F8
S1130C407F906F905F904F900895AF92BF92CF9234
S1130C50DF92EF92FF920F93A12CB12CC12CD12CD7
S1130C60E12CF12C00E020E030E045E550E068E6BE
S1130C7070E08BE095E007DF813079F4F89480939D
S1130C80560610925A06109259060F91FF90EF9053
S1130C90DF90CF90BF90AF90F5CB0F91FF90EF9086
S1130CA0DF90CF90BF90AF900895809155068F5FED
S1130CB0809355060895FF920F931F93CF93DF936C
S1130CC080915506811188C08091590690915A06E9
S1130CD0019690935A0680935906809159069091F3
S1130CE05A06892B79F580916706909168062091C0
S1130CF065063091660630936806209367069093E4
S1130D00660680936506809152068F5F8093520633
S1130D10E0916706F09168068081811103C08FEF2E
S1130D209FEF0CC0E0916706F09168060580F6819C
S1130D30E02D0680F781E02D8281938190936100FC
S1130D40809360002091590630915A06809160008A
S1130D50909161002817390708F443C089E0F82E00
S1130D60E0916706F09168068081811103C08FEFDE
S1130D709FEF12C0E0916706F09168060580F68146
S1130D80E02DC681D7818A819B81209159063091BB
S1130D905A062817390728F490936100809360005D
S1130DA020C08E010E5F1F4FC801B7DA8C899D8960
S1130DB0892B19F0CE010C96B0DA8E8990915706E2
S1130DC0981710F480935706F89EC0011124B801B7
S1130DD08558994F48DAC4CF809154068F5F809329
S1130DE05406DF91CF911F910F91FF900895EF92D8
S1130DF0FF920F931F93CF93DF930FB6F8940F9244
S1130E00809155068150809355068091550688231C
S1130E1011F080E04CC080915B068823D1F310E090
S1130E2009E080915C06882339F1E0916106F09134
S1130E306206C681D781CE010C966FDA7E0182E00C
S1130E40E80EF11CC70169DA8E899091570698174C
S1130E5010F480935706089FC0011124B7018558E8
S1130E60994F01DAE0919F06F091A0069E89868948
S1130E709817B8F211E0D5CF80915406811103C0C0
S1130E80113061F410C0809154068823C9F313DF34
S1130E9080915406815080935406F5CF8091530677
S1130EA0813009F0B6CF1092530621DB81E00F9018
S1130EB00FBEDF91CF911F910F91FF90EF90089596
S1130EC080915506882321F081E08093530608958C
S1130ED099E0E09157069E9FF0011124E558F94FDF
S1130EE08081811106C080915706815080935706F6
S1130EF0F0CF8091570690E049E0489F9001499FC8
S1130F00300D1124F901E558F94FA181B2811296EF
S1130F100D90BC91A02DB283A1832258394FA21702
S1130F20B30731F412962D913C91139732832183A8
S1130F3029E0289FF001299FF00D1124E558F94F6D
S1130F400180F281E02D868197819093A0068093A1
S1130F509F060895CF93DF93EB0160919F067091F4
S1130F60A006645F7F4FA2D980919F069091A0064E
S1130F700296D3D98091590690915A068C0F9D1FE1
S1130F80DF91CF914ACD0F931F93CF93DF93DC0171
S1130F901596ED91FC911697C681D7818E01045F59
S1130FA01F4FC801BAD980915506811113C00A5048
S1130FB01109C801B2D98E8990915706981710F477
S1130FC080935706B9E08B9FC0011124B80185585E
S1130FD0994F03C0B8018CE596E045D9E0919F068E
S1130FE0F091A00681E02E899689291708F480E003
S1130FF0DF91CF911F910F91089520915206FC012A
S113100020832091590630915A0632832183089512
S11310100FB6F8940F9220915206DC013C91119680
S1131020ED91FC911297321739F0209159063091C5
S11310305A062E173F07D0F44091590650915A068C
S1131040DB012D913C9111974E1B5F0B4217530707
S113105068F44091590650915A064E1B5F0B241BAD
S1131060350B2D933C93C9DF80E001C081E00F90E4
S11310700FBE089581E0809353060895991B79E08B
S113108004C0991F961708F0961B881F7A95C9F714
S113109080950895FB01DC0102C001900D9241503E
S11310A05040D8F70895DC0101C06D934150504081
S11310B0E0F70895FB01DC014150504048F00190F5
S11310C00D920020C9F701C01D9241505040E0F735
S10910D00895F894FFCF1F
S11110D6FFFF5461736B310049444C45000028
S9030000FC
