S01100007465726D6F6D6574722E7372656334
S11300002EC0000048C0000046C0000044C00000EC
S113001042C0000040C000003EC000002EC60000E8
S11300203AC0000038C00000D4C1000034C0000051
S113003032C0000030C000002EC000002CC0000000
S11300402AC0000028C0000026C0000024C0000010
S113005022C000003F065B4F666D7D077F6F112451
S11300601FBECFE5D8E0DEBFCDBF10E0A0E6B0E014
S1130070E0E2F8E102C005900D92A639B107D9F784
S113008026E0A6E9B0E001C01D92A13EB207E1F767
S11300900ED20C940E0CB4CF9C0197FF07C080E8DD
S11300A08093D80631952195310902C01092D80663
S11300B0243631051CF41092D7060BC0C90164E63E
S11300C070E00E94C80BFB01EC5AFF4FE491E093EF
S11300D0D706EAE0F0E0C901BF010E94C80B9C0109
S11300E0CB01BF010E94C80BFC01EC5AFF4F849165
S11300F080688093D606F901EC5AFF4FE491E093AF
S1130100D5060895C1E013E004E0DCE382E0F82EB4
S113011080B38F718F3109F4EDC0909199008913E8
S11301207EC090919800911133C0282F30E0209523
S113013030952F71332722303105A1F090919E0024
S113014024303105E1F02130310501F5911105C06C
S1130150C0939E00D093970019C010929E001092F5
S1130160970014C02091D1063091D2063093D00666
S11301702093CF063093CE062093CD0607C093304C
S113018019F400939E0002C010939E00C09398003F
S1130190909196002FEF290F243120F49F5F9093C4
S11301A096003DC0282F30E0209530952F713327DD
S11301B040919E002830310521F02031310599F01D
S11301C02BC0433039F420916200309163002150F8
S11301D0310911C0443001F5209160003091610073
S11301E02150310915C0433059F4209162003091F7
S11301F063002F5F3F4F30936300209362000CC075
S1130200443051F420916000309161002F5F3F4FE2
S11302103093610020936000953108F4BFCF809340
S1130220990080919700882321F081508093970052
S11302300DC080919E00813029F4F0929E00D093ED
S1130240970004C0823011F410929E0080919E00A9
S1130250823021F168F48823C1F0813089F5D9987E
S11302608BB38D618BBB8091CF069091D00627C054
S11302708330E9F0843021F5DC988BB38F608BBB3D
S113028080916000909161001AC0D8988BB38E6100
S11302908BBB8091D1069091D20611C0DA988BB3B2
S11302A08B618BBB8091CD069091CE0608C0DB9804
S11302B08BB387618BBB8091620090916300ECDE0D
S11302C08091D1069091D206209162003091630012
S11302D0821793073CF02091600030916100281749
S11302E0390714F4DD9801C0DD9A82E390E00E949E
S11302F0CE0A0ECF109298001092960090CFCF9312
S1130300DF9300D01F92CDB7DEB720E04FEF5FEF51
S113031060E070E080919C0090919D0055D6882308
S1130320A1F360E070E081E0D6D188EE93E00E9412
S1130330CE0A9E012F5F3F4FAE014E5F5F4FBE015D
S11303406D5F7F4F89ED96E0E3D18111DECF2A8185
S1130350898190E03AE0239F800D911D11249093B0
S1130360D2068093D1062B81213039F49195819561
S113037091099093D2068093D1062091D40680915E
S1130380D1069091D20621110CC09093D00680938F
S1130390CF069093CE068093CD0681E08093D40659
S11303A0B4CF2091CF063091D0068217930724F45E
S11303B09093D0068093CF062091CD063091CE063F
S11303C0281739070CF0A1CF9093CE068093CD0661
S11303D09CCF1F920F920FB60F9211242F933F932D
S11303E04F935F936F937F938F939F93AF93BF9339
S11303F0EF93FF93CF93DF931F92CDB7DEB71982AC
S113040080919A0090919B00853F21E0920730F4FF
S1130410019690939B0080939A000FC010929B00CA
S113042010929A0020E0AE014F5F5F4F60E070E0F1
S113043080919C0090919D00A1D58091D3068F5FFF
S11304408093D306843010F01092D30688B38F6063
S113045088BBE091D306F0E0EB52F94F80818095A0
S113046085BB3091D30628B381E090E002C0880FA9
S1130470991F3A95E2F780959095822388BB8981EC
S1130480813009F4A2D30F90DF91CF91FF91EF91C6
S1130490BF91AF919F918F917F916F915F914F9198
S11304A03F912F910F900FBE0F901F90189587B317
S11304B08F6087BB88B3807F88BB8FEF84BB15BAFE
S11304C082B38F6182BB8AB38F638ABB8BB38F6322
S11304D08BBB89B7826089BF8EE18CBF83B78D6087
S11304E083BFBED060E081E07DD490939D00809373
S11304F09C00009731F020E040E050E060E070E0C4
S1130500B7D4A12CB12CC12CD12CE12CF12C02E0BC
S113051020E030E045E550E066E770E08FE791E0E9
S113052020D601E020E030E045E550E064E870E0EA
S113053082E890E016D6F7D6FFCFFC01680F791F4A
S113054080E048E1E617F70781F0219198E0382F21
S11305503227532F517030FD84278695513009F48A
S113056080682695915099F7EDCF08950F931F93C6
S1130570CF93DF93CDB7DEB760970FB6F894DEBFA5
S11305800FBECDBF90E1E6E6F0E0DE0111960190EA
S11305900D929A95E1F7DB01ED91FC911197803171
S11305A059F4EE7F93E0EE0FFF1F9A95E1F716964C
S11305B09C91E91BF1093C96F7FF07C091E0DA0131
S11305C09C93F195E195F10902C0DA011C928832FD
S11305D081F4DB0114968C91982F9076903649F033
S11305E086FF02C0EE7F05C085FF02C0EC7F01C01C
S11305F0E87FCF0144E0969587954A95E1F7D901C4
S11306008C93EF70FF2781E090E08C0F9D1FE80F23
S1130610F91F8081D8018C9380E060960FB6F8941E
S1130620DEBF0FBECDBFDF91CF911F910F91089513
S11306300F931F93CF93DF93EC018B01B801888153
S113064097D1888381508D3F30F4F80180818832BE
S113065011F0803199F7DF91CF911F910F91089597
S1130660EF92FF921F93CF93DF93CDB7DEB7299715
S11306700FB6F894DEBF0FBECDBF8FEF898710E0B1
S11306807E0189E0E80EF11C89858823B9F01111F7
S113069014C0BE016F5F7F4FC701CADF89858E5FBB
S11306A0823060F0FE013196A9EDB6E081918D9320
S11306B011E0EE15FF05D1F7E7CF11E0812F299660
S11306C00FB6F894DEBF0FBECDBFDF91CF911F915F
S11306D0FF90EF9008950F931F93CF93DF93D82F3C
S11306E08B0108D1C82F81110AC0FED0882349F09C
S11306F0B80184E485D1D13029F0F9D003C0C1E038
S113070001C0C2E08C2FDF91CF911F910F9108950A
S11307104F925F926F927F928F929F92AF92BF920D
S1130720CF92DF92EF92FF920F931F93CF93DF93B9
S1130730CDB7DEB729970FB6F894DEBF0FBECDBF95
S11307406C013B015A018901D5D0811120C0B60149
S11307508EEB56D1CE0101967C014E019AE0890EB2
S1130760911C270103D1F70181937F01E815F90555
S1130770C9F769E070E0C201E0DEF82E81110AC019
S11307809501A301B201F6018081F0DE05C0FF24CA
S1130790F39402C083E0F82E8F2D29960FB6F894B7
S11307A0DEBF0FBECDBFDF91CF911F910F91FF90A0
S11307B0EF90DF90CF90BF90AF909F908F907F90FD
S11307C06F905F904F900895FC010396928381830C
S11307D02FEF3FEF3483238396838583908787832A
S11307E010820895FC01118610860895CF93DF933B
S11307F0DC01FB0111962D913C911297E9018A814C
S11308009B8193838283358324838A819B81EC013A
S11308107D836C83E9017B836A8312967C936E9358
S11308201197B187A0878C918F5F8C93DF91CF91C3
S11308300895CF93DF93AC01DB018D919C911197C7
S11308408F3F2FEF920721F4EA01EF81F8850EC064
S1130850FA01339622813381E90128813981821793
S1130860930720F00280F381E02DF4CF82819381FD
S113087013969C938E931297EC01BD83AC831596CB
S1130880FC93EE931497B383A28319965C934E93CF
S11308901897FA0180818F5F8083DF91CF9108954B
S11308A0CF93DF93FC01A281B38184819581159656
S11308B09C938E931497C481D581BB83AA83A0850E
S11308C0B18511968D919C911297E817F90721F43F
S11308D01296DC93CE931197118610868C918150D9
S11308E08C93DF91CF91089580B380720895959A87
S11308F08D9A089595988D9A80E897E00197F1F77D
S11309002FB7F8948D9888E091E00197F1F780B3C0
S11309102FBFE8E7F6E03197F1F7859B02C08072BC
S1130920089581E008952FB7F8948D9A95E09A95EB
S1130930F1F781118D9890E59A95F1F7859B80E008
S113094090EF9A95F1F78D982FBF0895CF93DF9389
S1130950C82FD8E08C2F8170E6DFC6958111C0685E
S1130960D150C1F78C2FDF91CF9108958FEFEECF47
S1130970DF92EF92FF920F931F93CF93DF93E82EB2
S11309808B01B8DF811131C080EFE0DFD0E0C0E43B
S113099088EFD82EDC0E81E0C6DFF82E81E0C3DFBD
S11309A0882319F0FF2071F022C0F1100BC0CE157E
S11309B030F0F801808180FF05C0CE1519F0DC2FDE
S11309C0FF24F3948F2DAFDFF80180818695FF20FB
S11309D011F08068F8018083C150CD11DCCF0F5F26
S11309E01F4FC111D5CF8D2F03C08FEF01C08EEFE4
S11309F0DF91CF911F910F91FF90EF90DF900895B9
S1130A00EF92FF921F93CF93DF93182FEB0172DFC6
S1130A10209761F085E59ADF7E0188E0E80EF11CFD
S1130A20899194DFCE15DF05D9F702C08CEC8EDFF7
S1130A30812FDF91CF911F91FF90EF9087CF0F937C
S1130A401F93CF93DF938C019ED4C0919F00D091CC
S1130A50A000CE01800F911F8C3D25E0920750F439
S1130A60C817D90738F4CF55DF4F9093A00080936F
S1130A709F0002C0C0E0D0E028D5CE01DF91CF9125
S1130A801F910F910895089531E1FC01308331974E
S1130A9022E220833197A3E3A083319760833197C7
S1130AA0708331971082319760E8608331971082A8
S1130AB0319762E06083319763E06083319764E04B
S1130AC06083319765E06083319766E06083319796
S1130AD067E06083319768E06083319769E0608301
S1130AE0319760E1608331973083319732E130830D
S1130AF0319733E13083319734E13083319735E1F5
S1130B003083319736E13083319737E13083319741
S1130B1038E13083319739E13083319730E23083E3
S1130B20319731E2308331972083319723E2208358
S1130B303197408331975083319726E22083319750
S1130B4027E22083319728E22083319729E220830A
S1130B50319720E32083319721E3208386970895FA
S1130B601BBC89EF8ABD8BE08EBD89B7806189BFCC
S1130B70A091CB06B091CC06CD91CDBFDD91DEBF67
S1130B80FF91EF91DF91CF91BF91AF919F918F91A1
S1130B907F916F915F914F913F912F911F910F9191
S1130BA0FF90EF90DF90CF90BF90AF909F908F9089
S1130BB07F906F905F904F903F902F901F900F9079
S1130BC00FBE0F90089581E008950F920FB6F89428
S1130BD00F921F9211242F923F924F925F926F9225
S1130BE07F928F929F92AF92BF92CF92DF92EF92B9
S1130BF0FF920F931F932F933F934F935F936F93A2
S1130C007F938F939F93AF93BF93CF93DF93EF9390
S1130C10FF93A091CB06B091CC060DB60D920EB603
S1130C200D92D8D4A091CB06B091CC06CD91CDBF76
S1130C30DD91DEBFFF91EF91DF91CF91BF91AF9135
S1130C409F918F917F916F915F914F913F912F91E0
S1130C501F910F91FF90EF90DF90CF90BF90AF90D6
S1130C609F908F907F906F905F904F903F902F90C8
S1130C701F900F900FBE0F9008951F920F920FB602
S1130C800F9211242F933F934F935F936F937F930E
S1130C908F939F93AF93BF93EF93FF937AD3FF9177
S1130CA0EF91BF91AF919F918F917F916F915F91E0
S1130CB04F913F912F910F900FBE0F901F90189559
S1130CC0CF93DF93EC01942F8C8D882389F1482FE7
S1130CD050E0911114C08C819D8181D52C8D8C8123
S1130CE09D81820F911D9D838C832A813B81821774
S1130CF09307F0F0888199819D838C8319C08E813C
S1130D009F816DD58C8D90E09195819591092E816F
S1130D103F81280F391F3F832E834881598124172F
S1130D20350730F42A813B81820F931F9F838E8382
S1130D308A8D8F5F8A8FDF91CF910895FC01CB015B
S1130D40608171816115710591F0448D50E02681B7
S1130D503781240F351F37832683A281B3812A1755
S1130D603B0710F0778366836681778138C50895E1
S1130D700F931F93CF93DF93EC010FB6F8940F9268
S1130D808C010F5E1F4F8E8D18165CF489898823A1
S1130D9041F0C80182D48111F7D48E8D81508E8F99
S1130DA0F2CF8FEF8E8F0F900FBE0FB6F8940F9285
S1130DB08E01085F1F4F8D8D18165CF4888588237B
S1130DC041F0C8016AD48111DFD48D8D81508D8F9B
S1130DD0F2CF8FEF8D8F0F900FBEDF91CF911F91C8
S1130DE00F910895CF92DF92EF92FF920F931F938A
S1130DF0CF93DF93882381F1F62EE82E8FE190E0E4
S1130E001EDEEC01892B41F1CF2CD12CEF9C80010B
S1130E101124C801019613DE998388830097D1F0C9
S1130E209C01200F311F3B832A831A8E9D838C8360
S1130E300C191D09080F191F1F830E83EB8EFC8EDE
S1130E408FEF8D8F8E8FCE010896BEDCCE0141963A
S1130E50BBDC04C0CE0117DEC0E0D0E0CE01DF91E0
S1130E60CF911F910F91FF90EF90DF90CF90089555
S1130E70AF92BF92DF92EF92FF920F931F93CF93A3
S1130E80DF9300D000D01F92CDB7DEB78C017B0179
S1130E905D834C83D22E80E0580198E0A90EB11CEA
S1130EA00FB6F8940F92F801228D938D291790F4C0
S1130EB04D2DB701C80104DFF8018189882331F081
S1130EC0C8014196EAD3813009F47FDE0F900FBE4A
S1130ED081E045C02C813D81232B19F40F900FBE76
S1130EE03DC0811103C0CE01019611D40F900FBEF5
S1130EF04AD20FB6F8940F92F801858D8F3F09F40A
S1130F00158EF801868D8F3F09F4168E0F900FBE53
S1130F10BE016C5F7F4FCE01019604D481111BC0CA
S1130F200FB6F8940F92F801928D0F900FBE838D37
S1130F3098130DC06C817D81C50196D3C80118DF5B
S1130F40C4D2882311F081E0ABCF3FDEFCCFC801CF
S1130F500FDFBBD2F8CFC8010BDFB7D280E00F9010
S1130F600F900F900F900F90DF91CF911F910F91E1
S1130F70FF90EF90DF90BF90AF9008950F931F9371
S1130F80CF93DF93EC019A8D8B8D9817B8F48A0177
S1130F90422FCE0195DE8E8D8F3F61F4898988239F
S1130FA059F0CE01419679D3882331F081E0F801DC
S1130FB0808305C08F5F8E8F81E001C080E0DF9168
S1130FC0CF911F910F910895AF92BF92DF92EF924C
S1130FD0FF920F931F93CF93DF9300D000D01F9203
S1130FE0CDB7DEB78C017B015D834C83D22E80E0CC
S1130FF0580191E1A90EB11C0FB6F8940F92F801B3
S1131000928D992319F1A680B780B701C80196DEA5
S1131010F801D1100DC0828D8150828F8085882384
S113102089F0C801089639D3813061F4CEDD0AC055
S1131030B782A6828189882329F0C80141962DD3DD
S11310408111F4CF0F900FBE81E044C02C813D810B
S1131050232B19F40F900FBE3CC0811103C0CE01A5
S1131060019655D30F900FBE8ED10FB6F8940F9200
S1131070F801858D8F3F09F4158EF801868D8F3F19
S113108009F4168E0F900FBEBE016C5F7F4FCE0128
S1131090019648D381111AC00FB6F8940F92F80143
S11310A0828D0F900FBE81110DC06C817D81C501B1
S11310B0DBD2C8015DDE09D2882311F081E09CCF28
S11310C084DDFCCFC80154DE00D2F8CFC80150DE65
S11310D0FCD180E00F900F900F900F900F90DF9154
S11310E0CF911F910F91FF90EF90DF90BF90AF9041
S11310F008956BDDFECFCF93DF93E091CB06F091A3
S1131100CC069383828320918506309186068217CC
S1131110930768F46091CB067091CC068091910698
S1131120909192066E5F7F4FDF91CF9182CBEC015D
S11311306091CB067091CC068091930690919406B1
S11311406E5F7F4F76DB8091640090916500C817D5
S1131150D90720F4D0936500C0936400DF91CF9148
S113116008954F925F926F927F928F929F92AF9267
S1131170BF92CF92DF92EF92FF920F931F93CF9380
S1131180DF932C013B015A01490181E290E057DCD5
S1131190EC01892B09F4B5C0C114D10419F4C501BB
S11311A04EDC01C0C601988F8F8B009719F4CE01D5
S11311B06ADCA7C0A50165EA70E01AD321E0A21A8F
S11311C0B1088F89988DA80EB91E48E050E0B3018C
S11311D0CE01499614D318A2102F043008F013E05E
S11311E01E8B6E0182E0C80ED11CC601FBDACE0153
S11311F00C96F8DAD987C88784E090E0811B9109BE
S11312009D878C87DB8BCA8BA401B201C5013CDCB2
S113121099838883E114F10419F0F701D183C08321
S11312200FB6F8940F92809187068F5F809387069C
S11312308091CB069091CC06892B51F5D093CC06A6
S1131240C093CB0680918706813089F587EA96E0C2
S1131250BBDA80EB96E0B8DA89EB96E0B5DA82EC9B
S113126096E0B2DA8EE996E0AFDA85E996E0ACDA98
S113127088E896E0A9DA8EE996E090939406809344
S1131280930685E996E090939206809391060FC0A9
S11312908091820681110BC0E091CB06F091CC06BF
S11312A08689081720F0D093CC06C093CB068E898C
S11312B090918406981710F48093840690917D068B
S11312C09F5F90937D0690918306981710F4809306
S11312D08306F9E08F9FC0011124B6018955994F07
S11312E085DA0F900FBE80918206882341F0E09149
S11312F0CB06F091CC068689801708F466DC81E081
S113130001C08FEFDF91CF911F910F91FF90EF906C
S1131310DF90CF90BF90AF909F908F907F906F9011
S11313205F904F900895AF92BF92CF92DF92EF9269
S1131330FF920F93A12CB12CC12CD12CE12CF12CB8
S113134000E020E030E045E550E061E970E089E745
S113135098E007DF813079F4F89480938206109244
S11313608606109285060F91FF90EF90DF90CF9044
S1131370BF90AF90F5CB0F91FF90EF90DF90CF909F
S1131380BF90AF900895809181068F5F809381060E
S11313900895FF920F931F93CF93DF93809181065B
S11313A0811188C08091850690918606019690935C
S11313B08606809385068091850690918606892B02
S11313C079F580919306909194062091910630913D
S11313D092063093940620939306909392068093FA
S11313E0910680917E068F5F80937E06E09193063E
S11313F0F09194068081811103C08FEF9FEF0CC0A0
S1131400E0919306F09194060580F681E02D068024
S1131410F781E02D8281938190936500809364002D
S11314202091850630918606809164009091650034
S11314302817390708F443C089E0F82EE091930691
S1131440F09194068081811103C08FEF9FEF12C049
S1131450E0919306F09194060580F681E02DC68113
S1131460D7818A819B812091850630918606281731
S1131470390728F4909365008093640020C08E019E
S11314800E5F1F4FC8010CDA8C899D89892B19F0D6
S1131490CE010C9605DA8E8990918306981710F484
S11314A080938306F89EC0011124B8018955994F91
S11314B09DD9C4CF809180068F5F80938006DF9191
S11314C0CF911F910F91FF900895EF92FF920F9388
S11314D01F93CF93DF930FB6F8940F9280918106F8
S11314E081508093810680918106882311F080E0E9
S11314F04CC0809187068823D1F310E009E08091E5
S11315008806882339F1E0918D06F0918E06C68114
S1131510D781CE010C96C4D97E0182E0E80EF11C7D
S1131520C701BED98E8990918306981710F48093D1
S11315308306089FC0011124B7018955994F56D9D4
S1131540E091CB06F091CC069E8986899817B8F273
S113155011E0D5CF80918006811103C0113061F470
S113156010C0809180068823C9F313DF8091800620
S1131570815080938006F5CF80917F06813009F0F9
S1131580B6CF10927F0621DB81E00F900FBEDF9172
S1131590CF911F910F91FF90EF900895CF93DF9318
S11315A0EC01892B11F411DB12C0EDDE809185066C
S11315B090918606C80FD91F8091CB069091CC06D6
S11315C002966ED9CE0197DD80DF882361F3DF9127
S11315D0CF91089580918106882321F081E0809342
S11315E07F06089599E0E09183069E9FF0011124FF
S11315F0E955F94F8081811106C08091830681509D
S113160080938306F0CF8091830690E049E0489F61
S11316109001499F300D1124F901E955F94FA18139
S1131620B28112960D90BC91A02DB283A183265550
S1131630394FA217B30731F412962D913C911397A9
S11316403283218329E0289FF001299FF00D112482
S1131650E955F94F0180F281E02D868197819093BD
S1131660CC068093CB060895CF93DF93EB01609172
S1131670CB067091CC06645F7F4FDBD88091CB069C
S11316809091CC0602960CD980918506909186069D
S11316908C0F9D1FDF91CF912ECD0F931F93CF936E
S11316A0DF93DC011596ED91FC911697C681D781E5
S11316B08E01045F1F4FC801F3D880918106811108
S11316C013C00A501109C801EBD88E899091830682
S11316D0981710F480938306B9E08B9FC0011124FE
S11316E0B8018955994F03C0B80188E896E07ED8BF
S11316F0E091CB06F091CC0681E02E8996892917DA
S113170008F480E0DF91CF911F910F91089520910B
S11317107E06FC0120832091850630918606328363
S1131720218308950FB6F8940F9220917E06DC0170
S11317303C911196ED91FC911297321739F020915A
S11317408506309186062E173F07D0F44091850612
S113175050918606DB012D913C9111974E1B5F0B36
S11317604217530768F440918506509186064E1B34
S11317705F0B241B350B2D933C93C9DF80E001C024
S113178081E00F900FBE089581E080937F06089555
S113179097FB072E16F4009406D077FD08D00BD0E3
S11317A007FC05D03EF4909581959F4F0895709560
S11317B061957F4F0895AA1BBB1B51E107C0AA1F67
S11317C0BB1FA617B70710F0A61BB70B881F991FDE
S11317D05A95A9F780959095BC01CD010895FB0118
S11317E0DC0102C001900D9241505040D8F7089599
S11317F0DC0101C06D9341505040E0F70895FB01B6
S1131800DC014150504048F001900D920020C9F78E
S113181001C01D9241505040E0F70895F894FFCF65
S11318202003F401FFFF0001010202030404050682
S1131830060707080909765461736B4D6561735493
S1131840656D7000765461736B4B6579734C656498
S10918500049444C450070
S9030000FC
